{
  "contractName": "ArchiveCertification",
  "abi": [
    {
      "constant": true,
      "inputs": [
        {
          "name": "",
          "type": "uint256"
        }
      ],
      "name": "certificates",
      "outputs": [
        {
          "name": "process_owner",
          "type": "address"
        },
        {
          "name": "name",
          "type": "string"
        },
        {
          "name": "description",
          "type": "string"
        },
        {
          "name": "unique_identifier",
          "type": "uint256"
        },
        {
          "name": "caseBox_addr",
          "type": "address"
        },
        {
          "name": "caseBox_UId",
          "type": "uint256"
        }
      ],
      "payable": false,
      "stateMutability": "view",
      "type": "function"
    },
    {
      "inputs": [],
      "payable": false,
      "stateMutability": "nonpayable",
      "type": "constructor"
    },
    {
      "anonymous": false,
      "inputs": [
        {
          "indexed": true,
          "name": "_unique_identifier",
          "type": "uint256"
        },
        {
          "indexed": true,
          "name": "_process_owner",
          "type": "address"
        },
        {
          "indexed": false,
          "name": "_name",
          "type": "string"
        }
      ],
      "name": "LogSignCertificate",
      "type": "event"
    },
    {
      "anonymous": false,
      "inputs": [
        {
          "indexed": false,
          "name": "_unique_identifier",
          "type": "uint256"
        },
        {
          "indexed": false,
          "name": "_information",
          "type": "string"
        }
      ],
      "name": "LogModifyCertificate",
      "type": "event"
    },
    {
      "anonymous": false,
      "inputs": [
        {
          "indexed": false,
          "name": "_newOwner",
          "type": "address"
        },
        {
          "indexed": false,
          "name": "_unique_identifier",
          "type": "uint256"
        }
      ],
      "name": "LogModifyProcessOwner",
      "type": "event"
    },
    {
      "anonymous": false,
      "inputs": [
        {
          "indexed": false,
          "name": "sender",
          "type": "address"
        },
        {
          "indexed": false,
          "name": "_caseBox_addr",
          "type": "address"
        }
      ],
      "name": "LogSetCaseBox",
      "type": "event"
    },
    {
      "constant": false,
      "inputs": [],
      "name": "kill",
      "outputs": [],
      "payable": false,
      "stateMutability": "nonpayable",
      "type": "function"
    },
    {
      "constant": false,
      "inputs": [
        {
          "name": "_process_owner",
          "type": "address"
        },
        {
          "name": "_name",
          "type": "string"
        },
        {
          "name": "_description",
          "type": "string"
        },
        {
          "name": "_unique_identifier",
          "type": "uint256"
        }
      ],
      "name": "signCertificate",
      "outputs": [],
      "payable": false,
      "stateMutability": "nonpayable",
      "type": "function"
    },
    {
      "constant": true,
      "inputs": [
        {
          "name": "_unique_identifier",
          "type": "uint256"
        }
      ],
      "name": "getCertificate",
      "outputs": [
        {
          "name": "",
          "type": "address"
        },
        {
          "name": "",
          "type": "string"
        },
        {
          "name": "",
          "type": "string"
        },
        {
          "name": "",
          "type": "address"
        },
        {
          "name": "",
          "type": "uint256"
        },
        {
          "name": "",
          "type": "address"
        },
        {
          "name": "",
          "type": "uint256"
        }
      ],
      "payable": false,
      "stateMutability": "view",
      "type": "function"
    },
    {
      "constant": true,
      "inputs": [
        {
          "name": "_unique_identifier",
          "type": "uint256"
        },
        {
          "name": "_processIndex",
          "type": "uint256"
        }
      ],
      "name": "getProcessInfo",
      "outputs": [
        {
          "name": "",
          "type": "address"
        },
        {
          "name": "",
          "type": "string"
        },
        {
          "name": "",
          "type": "string"
        },
        {
          "name": "",
          "type": "string"
        },
        {
          "name": "",
          "type": "uint256"
        }
      ],
      "payable": false,
      "stateMutability": "view",
      "type": "function"
    },
    {
      "constant": false,
      "inputs": [
        {
          "name": "_unique_identifier",
          "type": "uint256"
        },
        {
          "name": "_information",
          "type": "string"
        },
        {
          "name": "lat",
          "type": "string"
        },
        {
          "name": "lon",
          "type": "string"
        }
      ],
      "name": "modifyCertificate",
      "outputs": [],
      "payable": false,
      "stateMutability": "nonpayable",
      "type": "function"
    },
    {
      "constant": false,
      "inputs": [
        {
          "name": "_unique_identifier",
          "type": "uint256"
        },
        {
          "name": "_newOwner",
          "type": "address"
        },
        {
          "name": "lat",
          "type": "string"
        },
        {
          "name": "lon",
          "type": "string"
        }
      ],
      "name": "modifyProcessOwner",
      "outputs": [],
      "payable": false,
      "stateMutability": "nonpayable",
      "type": "function"
    },
    {
      "constant": true,
      "inputs": [
        {
          "name": "_unique_identifier",
          "type": "uint256"
        }
      ],
      "name": "getCertificateOwner",
      "outputs": [
        {
          "name": "",
          "type": "address"
        }
      ],
      "payable": false,
      "stateMutability": "view",
      "type": "function"
    },
    {
      "constant": false,
      "inputs": [
        {
          "name": "_caseBox_addr",
          "type": "address"
        },
        {
          "name": "_caseBox_uid",
          "type": "uint256"
        },
        {
          "name": "unit_box_uid",
          "type": "uint256"
        },
        {
          "name": "sender",
          "type": "address"
        },
        {
          "name": "lat",
          "type": "string"
        },
        {
          "name": "lon",
          "type": "string"
        }
      ],
      "name": "setCaseBox",
      "outputs": [],
      "payable": false,
      "stateMutability": "nonpayable",
      "type": "function"
    },
    {
      "constant": true,
      "inputs": [],
      "name": "getLastBlockTimestamp",
      "outputs": [
        {
          "name": "",
          "type": "uint256"
        }
      ],
      "payable": false,
      "stateMutability": "view",
      "type": "function"
    },
    {
      "constant": true,
      "inputs": [
        {
          "name": "_addr",
          "type": "address"
        }
      ],
      "name": "addressToString",
      "outputs": [
        {
          "name": "",
          "type": "string"
        }
      ],
      "payable": false,
      "stateMutability": "pure",
      "type": "function"
    }
  ],
  "bytecode": "0x608060405234801561001057600080fd5b50336000806101000a81548173ffffffffffffffffffffffffffffffffffffffff021916908373ffffffffffffffffffffffffffffffffffffffff1602179055506128e5806100606000396000f3fe608060405234801561001057600080fd5b50600436106100a95760003560e01c8063663b3e2211610071578063663b3e221461066e578063684aca83146107f55780637282693e146109e857806384e814ef14610a06578063acebf3d514610a74578063f7d1e37814610bf0576100a9565b80631cac1dc2146100ae57806321fa832f1461022a57806341c0e1b5146103ed57806351640fee146103f75780635e57966d146105b1575b600080fd5b610228600480360360808110156100c457600080fd5b81019080803573ffffffffffffffffffffffffffffffffffffffff1690602001909291908035906020019064010000000081111561010157600080fd5b82018360208201111561011357600080fd5b8035906020019184600183028401116401000000008311171561013557600080fd5b91908080601f016020809104026020016040519081016040528093929190818152602001838380828437600081840152601f19601f8201169050808301925050505050505091929192908035906020019064010000000081111561019857600080fd5b8201836020820111156101aa57600080fd5b803590602001918460018302840111640100000000831117156101cc57600080fd5b91908080601f016020809104026020016040519081016040528093929190818152602001838380828437600081840152601f19601f82011690508083019250505050505050919291929080359060200190929190505050610d96565b005b6102606004803603604081101561024057600080fd5b810190808035906020019092919080359060200190929190505050611212565b604051808673ffffffffffffffffffffffffffffffffffffffff1673ffffffffffffffffffffffffffffffffffffffff168152602001806020018060200180602001858152602001848103845288818151815260200191508051906020019080838360005b838110156102e05780820151818401526020810190506102c5565b50505050905090810190601f16801561030d5780820380516001836020036101000a031916815260200191505b50848103835287818151815260200191508051906020019080838360005b8381101561034657808201518184015260208101905061032b565b50505050905090810190601f1680156103735780820380516001836020036101000a031916815260200191505b50848103825286818151815260200191508051906020019080838360005b838110156103ac578082015181840152602081019050610391565b50505050905090810190601f1680156103d95780820380516001836020036101000a031916815260200191505b509850505050505050505060405180910390f35b6103f56115aa565b005b6104236004803603602081101561040d57600080fd5b81019080803590602001909291905050506116a6565b604051808873ffffffffffffffffffffffffffffffffffffffff1673ffffffffffffffffffffffffffffffffffffffff16815260200180602001806020018773ffffffffffffffffffffffffffffffffffffffff1673ffffffffffffffffffffffffffffffffffffffff1681526020018681526020018573ffffffffffffffffffffffffffffffffffffffff1673ffffffffffffffffffffffffffffffffffffffff168152602001848152602001838103835289818151815260200191508051906020019080838360005b838110156105095780820151818401526020810190506104ee565b50505050905090810190601f1680156105365780820380516001836020036101000a031916815260200191505b50838103825288818151815260200191508051906020019080838360005b8381101561056f578082015181840152602081019050610554565b50505050905090810190601f16801561059c5780820380516001836020036101000a031916815260200191505b50995050505050505050505060405180910390f35b6105f3600480360360208110156105c757600080fd5b81019080803573ffffffffffffffffffffffffffffffffffffffff169060200190929190505050611959565b6040518080602001828103825283818151815260200191508051906020019080838360005b83811015610633578082015181840152602081019050610618565b50505050905090810190601f1680156106605780820380516001836020036101000a031916815260200191505b509250505060405180910390f35b61069a6004803603602081101561068457600080fd5b8101908080359060200190929190505050611bda565b604051808773ffffffffffffffffffffffffffffffffffffffff1673ffffffffffffffffffffffffffffffffffffffff16815260200180602001806020018681526020018573ffffffffffffffffffffffffffffffffffffffff1673ffffffffffffffffffffffffffffffffffffffff168152602001848152602001838103835288818151815260200191508051906020019080838360005b8381101561074e578082015181840152602081019050610733565b50505050905090810190601f16801561077b5780820380516001836020036101000a031916815260200191505b50838103825287818151815260200191508051906020019080838360005b838110156107b4578082015181840152602081019050610799565b50505050905090810190601f1680156107e15780820380516001836020036101000a031916815260200191505b509850505050505050505060405180910390f35b6109e66004803603608081101561080b57600080fd5b81019080803590602001909291908035906020019064010000000081111561083257600080fd5b82018360208201111561084457600080fd5b8035906020019184600183028401116401000000008311171561086657600080fd5b91908080601f016020809104026020016040519081016040528093929190818152602001838380828437600081840152601f19601f820116905080830192505050505050509192919290803590602001906401000000008111156108c957600080fd5b8201836020820111156108db57600080fd5b803590602001918460018302840111640100000000831117156108fd57600080fd5b91908080601f016020809104026020016040519081016040528093929190818152602001838380828437600081840152601f19601f8201169050808301925050505050505091929192908035906020019064010000000081111561096057600080fd5b82018360208201111561097257600080fd5b8035906020019184600183028401116401000000008311171561099457600080fd5b91908080601f016020809104026020016040519081016040528093929190818152602001838380828437600081840152601f19601f820116905080830192505050505050509192919290505050611d86565b005b6109f0612030565b6040518082815260200191505060405180910390f35b610a3260048036036020811015610a1c57600080fd5b8101908080359060200190929190505050612038565b604051808273ffffffffffffffffffffffffffffffffffffffff1673ffffffffffffffffffffffffffffffffffffffff16815260200191505060405180910390f35b610bee60048036036080811015610a8a57600080fd5b8101908080359060200190929190803573ffffffffffffffffffffffffffffffffffffffff16906020019092919080359060200190640100000000811115610ad157600080fd5b820183602082011115610ae357600080fd5b80359060200191846001830284011164010000000083111715610b0557600080fd5b91908080601f016020809104026020016040519081016040528093929190818152602001838380828437600081840152601f19601f82011690508083019250505050505050919291929080359060200190640100000000811115610b6857600080fd5b820183602082011115610b7a57600080fd5b80359060200191846001830284011164010000000083111715610b9c57600080fd5b91908080601f016020809104026020016040519081016040528093929190818152602001838380828437600081840152601f19601f82011690508083019250505050505050919291929050505061207d565b005b610d94600480360360c0811015610c0657600080fd5b81019080803573ffffffffffffffffffffffffffffffffffffffff1690602001909291908035906020019092919080359060200190929190803573ffffffffffffffffffffffffffffffffffffffff16906020019092919080359060200190640100000000811115610c7757600080fd5b820183602082011115610c8957600080fd5b80359060200191846001830284011164010000000083111715610cab57600080fd5b91908080601f016020809104026020016040519081016040528093929190818152602001838380828437600081840152601f19601f82011690508083019250505050505050919291929080359060200190640100000000811115610d0e57600080fd5b820183602082011115610d2057600080fd5b80359060200191846001830284011164010000000083111715610d4257600080fd5b91908080601f016020809104026020016040519081016040528093929190818152602001838380828437600081840152601f19601f820116905080830192505050505050509192919290505050612450565b005b6000809054906101000a900473ffffffffffffffffffffffffffffffffffffffff1673ffffffffffffffffffffffffffffffffffffffff163373ffffffffffffffffffffffffffffffffffffffff1614610e58576040517f08c379a00000000000000000000000000000000000000000000000000000000081526004018080602001828103825260138152602001807f4572726f722073657474696e67206f776e65720000000000000000000000000081525060200191505060405180910390fd5b836001600083815260200190815260200160002060000160006101000a81548173ffffffffffffffffffffffffffffffffffffffff021916908373ffffffffffffffffffffffffffffffffffffffff16021790555082600160008381526020019081526020016000206001019080519060200190610ed7929190612794565b5081600160008381526020019081526020016000206002019080519060200190610f02929190612794565b50600160008281526020019081526020016000206003016040518060a001604052803373ffffffffffffffffffffffffffffffffffffffff1681526020016040518060400160405280600481526020017f496e69740000000000000000000000000000000000000000000000000000000081525081526020016040518060400160405280600381526020017f302e30000000000000000000000000000000000000000000000000000000000081525081526020016040518060400160405280600381526020017f302e3000000000000000000000000000000000000000000000000000000000008152508152602001428152509080600181540180825580915050906001820390600052602060002090600502016000909192909190915060008201518160000160006101000a81548173ffffffffffffffffffffffffffffffffffffffff021916908373ffffffffffffffffffffffffffffffffffffffff1602179055506020820151816001019080519060200190611083929190612814565b5060408201518160020190805190602001906110a0929190612814565b5060608201518160030190805190602001906110bd929190612814565b506080820151816004015550505080600160008381526020019081526020016000206004018190555060006001600083815260200190815260200160002060050160006101000a81548173ffffffffffffffffffffffffffffffffffffffff021916908373ffffffffffffffffffffffffffffffffffffffff160217905550600060016000838152602001908152602001600020600601819055508373ffffffffffffffffffffffffffffffffffffffff16817fbfda96928ede3cdc2d2485f7aeb4bc19717507b9666e51a9bec41a2a183a3473856040518080602001828103825283818151815260200191508051906020019080838360005b838110156111d25780820151818401526020810190506111b7565b50505050905090810190601f1680156111ff5780820380516001836020036101000a031916815260200191505b509250505060405180910390a350505050565b600060608060606000866001600089815260200190815260200160002060040154146112a6576040517f08c379a00000000000000000000000000000000000000000000000000000000081526004018080602001828103825260188152602001807f4572726f72206765744365727469666963617465496e666f000000000000000081525060200191505060405180910390fd5b6001600088815260200190815260200160002060030186815481106112c757fe5b906000526020600020906005020160000160009054906101000a900473ffffffffffffffffffffffffffffffffffffffff1660016000898152602001908152602001600020600301878154811061131a57fe5b9060005260206000209060050201600101600160008a8152602001908152602001600020600301888154811061134c57fe5b9060005260206000209060050201600201600160008b8152602001908152602001600020600301898154811061137e57fe5b9060005260206000209060050201600301600160008c81526020019081526020016000206003018a815481106113b057fe5b906000526020600020906005020160040154838054600181600116156101000203166002900480601f0160208091040260200160405190810160405280929190818152602001828054600181600116156101000203166002900480156114575780601f1061142c57610100808354040283529160200191611457565b820191906000526020600020905b81548152906001019060200180831161143a57829003601f168201915b50505050509350828054600181600116156101000203166002900480601f0160208091040260200160405190810160405280929190818152602001828054600181600116156101000203166002900480156114f35780601f106114c8576101008083540402835291602001916114f3565b820191906000526020600020905b8154815290600101906020018083116114d657829003601f168201915b50505050509250818054600181600116156101000203166002900480601f01602080910402602001604051908101604052809291908181526020018280546001816001161561010002031660029004801561158f5780601f106115645761010080835404028352916020019161158f565b820191906000526020600020905b81548152906001019060200180831161157257829003601f168201915b50505050509150945094509450945094509295509295909350565b6000809054906101000a900473ffffffffffffffffffffffffffffffffffffffff1673ffffffffffffffffffffffffffffffffffffffff163373ffffffffffffffffffffffffffffffffffffffff161461166c576040517f08c379a00000000000000000000000000000000000000000000000000000000081526004018080602001828103825260138152602001807f4572726f722073657474696e67206f776e65720000000000000000000000000081525060200191505060405180910390fd5b6000809054906101000a900473ffffffffffffffffffffffffffffffffffffffff1673ffffffffffffffffffffffffffffffffffffffff16ff5b600060608060008060008087600160008a8152602001908152602001600020600401541461173c576040517f08c379a00000000000000000000000000000000000000000000000000000000081526004018080602001828103825260148152602001807f4572726f7220676574436572746966696361746500000000000000000000000081525060200191505060405180910390fd5b6001600089815260200190815260200160002060000160009054906101000a900473ffffffffffffffffffffffffffffffffffffffff16600160008a8152602001908152602001600020600101600160008b815260200190815260200160002060020130600160008d815260200190815260200160002060030180549050600160008e815260200190815260200160002060050160009054906101000a900473ffffffffffffffffffffffffffffffffffffffff16600160008f815260200190815260200160002060060154858054600181600116156101000203166002900480601f01602080910402602001604051908101604052809291908181526020018280546001816001161561010002031660029004801561189d5780601f106118725761010080835404028352916020019161189d565b820191906000526020600020905b81548152906001019060200180831161188057829003601f168201915b50505050509550848054600181600116156101000203166002900480601f0160208091040260200160405190810160405280929190818152602001828054600181600116156101000203166002900480156119395780601f1061190e57610100808354040283529160200191611939565b820191906000526020600020905b81548152906001019060200180831161191c57829003601f168201915b505050505094509650965096509650965096509650919395979092949650565b606060008273ffffffffffffffffffffffffffffffffffffffff1660001b905060606040518060400160405280601081526020017f30313233343536373839616263646566000000000000000000000000000000008152509050606060336040519080825280601f01601f1916602001820160405280156119e95781602001600182028038833980820191505090505b5090507f300000000000000000000000000000000000000000000000000000000000000081600081518110611a1a57fe5b60200101907effffffffffffffffffffffffffffffffffffffffffffffffffffffffffffff1916908160001a9053507f780000000000000000000000000000000000000000000000000000000000000081600181518110611a7757fe5b60200101907effffffffffffffffffffffffffffffffffffffffffffffffffffffffffffff1916908160001a90535060008090505b6014811015611bce5782600485600c840160208110611ac757fe5b1a60f81b7effffffffffffffffffffffffffffffffffffffffffffffffffffffffffffff1916901c60f81c60ff1681518110611aff57fe5b602001015160f81c60f81b826002830260020181518110611b1c57fe5b60200101907effffffffffffffffffffffffffffffffffffffffffffffffffffffffffffff1916908160001a90535082600f60f81b85600c840160208110611b6057fe5b1a60f81b1660f81c60ff1681518110611b7557fe5b602001015160f81c60f81b826002830260030181518110611b9257fe5b60200101907effffffffffffffffffffffffffffffffffffffffffffffffffffffffffffff1916908160001a9053508080600101915050611aac565b50809350505050919050565b60016020528060005260406000206000915090508060000160009054906101000a900473ffffffffffffffffffffffffffffffffffffffff1690806001018054600181600116156101000203166002900480601f016020809104026020016040519081016040528092919081815260200182805460018160011615610100020316600290048015611cac5780601f10611c8157610100808354040283529160200191611cac565b820191906000526020600020905b815481529060010190602001808311611c8f57829003601f168201915b505050505090806002018054600181600116156101000203166002900480601f016020809104026020016040519081016040528092919081815260200182805460018160011615610100020316600290048015611d4a5780601f10611d1f57610100808354040283529160200191611d4a565b820191906000526020600020905b815481529060010190602001808311611d2d57829003601f168201915b5050505050908060040154908060050160009054906101000a900473ffffffffffffffffffffffffffffffffffffffff16908060060154905086565b6001600085815260200190815260200160002060000160009054906101000a900473ffffffffffffffffffffffffffffffffffffffff1673ffffffffffffffffffffffffffffffffffffffff163373ffffffffffffffffffffffffffffffffffffffff1614611e5d576040517f08c379a00000000000000000000000000000000000000000000000000000000081526004018080602001828103825260178152602001807f4572726f72206d6f64696679436572746966696361746500000000000000000081525060200191505060405180910390fd5b600160008581526020019081526020016000206003016040518060a001604052803373ffffffffffffffffffffffffffffffffffffffff168152602001858152602001848152602001838152602001428152509080600181540180825580915050906001820390600052602060002090600502016000909192909190915060008201518160000160006101000a81548173ffffffffffffffffffffffffffffffffffffffff021916908373ffffffffffffffffffffffffffffffffffffffff1602179055506020820151816001019080519060200190611f3e929190612814565b506040820151816002019080519060200190611f5b929190612814565b506060820151816003019080519060200190611f78929190612814565b50608082015181600401555050507f4ed9d3149e3f4a2245abc07e1429b94876f87d613362f125b8e9128ca7443f5884846040518083815260200180602001828103825283818151815260200191508051906020019080838360005b83811015611fef578082015181840152602081019050611fd4565b50505050905090810190601f16801561201c5780820380516001836020036101000a031916815260200191505b50935050505060405180910390a150505050565b600042905090565b6000806001600084815260200190815260200160002090508060000160009054906101000a900473ffffffffffffffffffffffffffffffffffffffff16915050919050565b6001600085815260200190815260200160002060000160009054906101000a900473ffffffffffffffffffffffffffffffffffffffff1673ffffffffffffffffffffffffffffffffffffffff163373ffffffffffffffffffffffffffffffffffffffff1614612154576040517f08c379a00000000000000000000000000000000000000000000000000000000081526004018080602001828103825260188152602001807f4572726f72206d6f6469667950726f636573734f776e6572000000000000000081525060200191505060405180910390fd5b826001600086815260200190815260200160002060000160006101000a81548173ffffffffffffffffffffffffffffffffffffffff021916908373ffffffffffffffffffffffffffffffffffffffff160217905550606060405160200180807f5472616e73666572206f66206f776e65727368697020746f200000000000000081525060190190506040516020818303038152906040529050806121f785611959565b6040516020018083805190602001908083835b6020831061222d578051825260208201915060208101905060208303925061220a565b6001836020036101000a03801982511681845116808217855250505050505090500182805190602001908083835b6020831061227e578051825260208201915060208101905060208303925061225b565b6001836020036101000a038019825116818451168082178552505050505050905001925050506040516020818303038152906040529050600160008681526020019081526020016000206003016040518060a001604052803373ffffffffffffffffffffffffffffffffffffffff168152602001838152602001858152602001848152602001428152509080600181540180825580915050906001820390600052602060002090600502016000909192909190915060008201518160000160006101000a81548173ffffffffffffffffffffffffffffffffffffffff021916908373ffffffffffffffffffffffffffffffffffffffff1602179055506020820151816001019080519060200190612396929190612814565b5060408201518160020190805190602001906123b3929190612814565b5060608201518160030190805190602001906123d0929190612814565b50608082015181600401555050507f8fb219ab319a1143dc3434037c1394359aa4c17fdd84e8d41563db11d41ef1788486604051808373ffffffffffffffffffffffffffffffffffffffff1673ffffffffffffffffffffffffffffffffffffffff1681526020018281526020019250505060405180910390a15050505050565b6001600085815260200190815260200160002060000160009054906101000a900473ffffffffffffffffffffffffffffffffffffffff1673ffffffffffffffffffffffffffffffffffffffff168373ffffffffffffffffffffffffffffffffffffffff1614612527576040517f08c379a00000000000000000000000000000000000000000000000000000000081526004018080602001828103825260108152602001807f6572726f722073657443617365426f780000000000000000000000000000000081525060200191505060405180910390fd5b856001600086815260200190815260200160002060050160006101000a81548173ffffffffffffffffffffffffffffffffffffffff021916908373ffffffffffffffffffffffffffffffffffffffff160217905550846001600086815260200190815260200160002060060181905550600160008581526020019081526020016000206003016040518060a001604052808573ffffffffffffffffffffffffffffffffffffffff1681526020016040518060400160405280601381526020017f4361736520626f782061737369676e6d656e74000000000000000000000000008152508152602001848152602001838152602001428152509080600181540180825580915050906001820390600052602060002090600502016000909192909190915060008201518160000160006101000a81548173ffffffffffffffffffffffffffffffffffffffff021916908373ffffffffffffffffffffffffffffffffffffffff16021790555060208201518160010190805190602001906126ad929190612814565b5060408201518160020190805190602001906126ca929190612814565b5060608201518160030190805190602001906126e7929190612814565b50608082015181600401555050507f10674784122b1bdd63569e5ea89c5b3299a14322ce70e1abc1094ea7c1e3ced58387604051808373ffffffffffffffffffffffffffffffffffffffff1673ffffffffffffffffffffffffffffffffffffffff1681526020018273ffffffffffffffffffffffffffffffffffffffff1673ffffffffffffffffffffffffffffffffffffffff1681526020019250505060405180910390a1505050505050565b828054600181600116156101000203166002900490600052602060002090601f016020900481019282601f106127d557805160ff1916838001178555612803565b82800160010185558215612803579182015b828111156128025782518255916020019190600101906127e7565b5b5090506128109190612894565b5090565b828054600181600116156101000203166002900490600052602060002090601f016020900481019282601f1061285557805160ff1916838001178555612883565b82800160010185558215612883579182015b82811115612882578251825591602001919060010190612867565b5b5090506128909190612894565b5090565b6128b691905b808211156128b257600081600090555060010161289a565b5090565b9056fea165627a7a7230582098cbbfb97e8f192392dbc128b5008e6bf87eaaa9a70a28f726e907b987ce6e240029",
  "source": "pragma solidity ^0.5.7;\n\ncontract ArchiveCertification{\n\n  struct processAction{\n    address from;\n    string action;\n    string latitude;\n    string longitude;\n    uint256 timestamp;\n  }\n\n  struct Certificate{\n    address process_owner;\n    string name;\n    string description;\n    processAction[] process_data;\n    uint256 unique_identifier;\n    address caseBox_addr;\n    uint256 caseBox_UId;\n  }\n\n  address payable contract_owner;\n  mapping (uint256 => Certificate) public certificates;\n\n  // modifiers\n  modifier contractOwner() {\n    require(msg.sender == contract_owner, \"Error setting owner\");\n    _;\n  }\n\n  // constructor\n  constructor () public {\n    contract_owner = msg.sender;\n  }\n\n  // deactivate the contract\n  function kill() public contractOwner {\n    selfdestruct(contract_owner);\n  }\n\n  // events\n  event LogSignCertificate(\n    uint indexed _unique_identifier,\n    address indexed _process_owner,\n    string _name\n  );\n\n  // events\n  event LogModifyCertificate(\n    uint _unique_identifier,\n    string _information\n  );\n\n  // events\n  event LogModifyProcessOwner(\n    address _newOwner,\n    uint _unique_identifier\n  );\n\n  event LogSetCaseBox(\n    address sender,\n    address _caseBox_addr\n  );\n\n\n  function signCertificate(address _process_owner, string memory _name,\n  string memory _description, uint256 _unique_identifier) public contractOwner{\n\n    certificates[_unique_identifier].process_owner = _process_owner;\n    certificates[_unique_identifier].name = _name;\n    certificates[_unique_identifier].description = _description;\n    certificates[_unique_identifier].process_data.push (processAction(msg.sender,\"Init\", \"0.0\", \"0.0\", block.timestamp ));\n    certificates[_unique_identifier].unique_identifier = _unique_identifier;\n    certificates[_unique_identifier].caseBox_addr = address(0);\n    certificates[_unique_identifier].caseBox_UId = 0;\n\n\n    emit LogSignCertificate(_unique_identifier, _process_owner, _name);\n  }\n\n  function getCertificate(uint _unique_identifier) public view returns (\n    address, string memory, string memory, address, uint, address, uint256){\n\n    require(certificates[_unique_identifier].unique_identifier == _unique_identifier, \"Error getCertificate\");\n\n    return (certificates[_unique_identifier].process_owner,\n    certificates[_unique_identifier].name, certificates[_unique_identifier].description,\n    address(this), certificates[_unique_identifier].process_data.length,certificates[_unique_identifier].caseBox_addr,certificates[_unique_identifier].caseBox_UId);\n  }\n\n  function getProcessInfo(uint256 _unique_identifier, uint _processIndex)\n  public view returns (address, string memory, string memory, string memory, uint256){\n    require(certificates[_unique_identifier].unique_identifier == _unique_identifier, \"Error getCertificateInfo\");\n\n    return (certificates[_unique_identifier].process_data[_processIndex].from,\n    certificates[_unique_identifier].process_data[_processIndex].action,\n    certificates[_unique_identifier].process_data[_processIndex].latitude,\n    certificates[_unique_identifier].process_data[_processIndex].longitude,\n    certificates[_unique_identifier].process_data[_processIndex].timestamp);\n  }\n  function modifyCertificate(uint256 _unique_identifier, string memory _information, string memory lat, string memory lon) public {\n    require(msg.sender == certificates[_unique_identifier].process_owner,\"Error modifyCertificate\");\n\n    certificates[_unique_identifier].process_data.push (processAction(msg.sender,_information, lat, lon, block.timestamp ));\n    emit LogModifyCertificate(_unique_identifier, _information);\n  }\n\n  function modifyProcessOwner(uint256 _unique_identifier, address _newOwner, string memory lat, string memory lon) public {\n    require(msg.sender == certificates[_unique_identifier].process_owner,\"Error modifyProcessOwner\");\n\n    certificates[_unique_identifier].process_owner = _newOwner;\n    bytes memory ownerAction = abi.encodePacked(\"Transfer of ownership to \");\n    ownerAction = abi.encodePacked(ownerAction,addressToString(_newOwner));\n    certificates[_unique_identifier].process_data.push (processAction(msg.sender,string(ownerAction), lat, lon, block.timestamp ));\n    emit LogModifyProcessOwner(_newOwner, _unique_identifier);\n  }\n\n  function getCertificateOwner(uint256 _unique_identifier) public view returns (address){\n    Certificate storage certificate = certificates[_unique_identifier];\n    return certificate.process_owner;\n  }\n\n  function setCaseBox(address _caseBox_addr,\n    uint256 _caseBox_uid, uint256 unit_box_uid,\n    address sender, string memory lat,\n    string memory lon) public {\n    require(sender == certificates[unit_box_uid].process_owner, \"error setCaseBox\");\n\n    certificates[unit_box_uid].caseBox_addr = _caseBox_addr;\n    certificates[unit_box_uid].caseBox_UId = _caseBox_uid;\n\n    certificates[unit_box_uid].process_data.push (processAction(sender,\"Case box assignment\", lat, lon, block.timestamp ));\n\n    emit LogSetCaseBox(sender, _caseBox_addr);\n  }\n\n  function getLastBlockTimestamp() public view returns (uint) {\n    return  block.timestamp;\n  }\n\n  function addressToString(address _addr) public pure returns(string memory)\n  {\n    bytes32 value = bytes32(uint256(_addr));\n    bytes memory alphabet = \"0123456789abcdef\";\n\n    bytes memory str = new bytes(51);\n    str[0] = '0';\n    str[1] = 'x';\n    for (uint256 i = 0; i < 20; i++) {\n        str[2+i*2] = alphabet[uint8(value[i + 12] >> 4)];\n        str[3+i*2] = alphabet[uint8(value[i + 12] & 0x0f)];\n    }\n    return string(str);\n  }\n\n\n}\n",
  "sourcePath": "/home/ferdi/bcsifi_serial/BCSifiSC_rop_serial/contracts/ArchiveCertification.sol",
  "compiler": {
    "name": "solc",
    "version": "0.5.8+commit.23d335f2.Emscripten.clang"
  },
  "schemaVersion": "3.0.11",
  "updatedAt": "2020-01-13T11:10:21.373Z",
  "devdoc": {
    "methods": {}
  },
  "userdoc": {
    "methods": {}
  }
}