{
  "contractName": "caseboxCertification",
  "abi": [
    {
      "constant": true,
      "inputs": [
        {
          "name": "",
          "type": "uint256"
        }
      ],
      "name": "box_certificates",
      "outputs": [
        {
          "name": "box_owner",
          "type": "address"
        },
        {
          "name": "name",
          "type": "string"
        },
        {
          "name": "description",
          "type": "string"
        },
        {
          "name": "unique_identifier",
          "type": "uint256"
        },
        {
          "name": "unitLoadAddr",
          "type": "address"
        },
        {
          "name": "unitLoad_UId",
          "type": "uint256"
        }
      ],
      "payable": false,
      "stateMutability": "view",
      "type": "function"
    },
    {
      "inputs": [],
      "payable": false,
      "stateMutability": "nonpayable",
      "type": "constructor"
    },
    {
      "anonymous": false,
      "inputs": [
        {
          "indexed": true,
          "name": "_unique_identifier",
          "type": "uint256"
        },
        {
          "indexed": true,
          "name": "_process_owner",
          "type": "address"
        },
        {
          "indexed": false,
          "name": "_name",
          "type": "string"
        }
      ],
      "name": "LogSignCertificate",
      "type": "event"
    },
    {
      "anonymous": false,
      "inputs": [
        {
          "indexed": false,
          "name": "_unique_identifier",
          "type": "uint256"
        },
        {
          "indexed": false,
          "name": "_information",
          "type": "string"
        }
      ],
      "name": "LogModifyCertificate",
      "type": "event"
    },
    {
      "anonymous": false,
      "inputs": [
        {
          "indexed": false,
          "name": "_newOwner",
          "type": "address"
        },
        {
          "indexed": false,
          "name": "_unique_identifier",
          "type": "uint256"
        }
      ],
      "name": "LogModifyProcessOwner",
      "type": "event"
    },
    {
      "anonymous": false,
      "inputs": [
        {
          "indexed": false,
          "name": "_unique_identifier",
          "type": "uint256"
        },
        {
          "indexed": false,
          "name": "casebox_id",
          "type": "uint256"
        },
        {
          "indexed": false,
          "name": "unitBoxAddr",
          "type": "address"
        }
      ],
      "name": "LogAddUnitBox",
      "type": "event"
    },
    {
      "constant": false,
      "inputs": [],
      "name": "kill",
      "outputs": [],
      "payable": false,
      "stateMutability": "nonpayable",
      "type": "function"
    },
    {
      "constant": false,
      "inputs": [
        {
          "name": "_process_owner",
          "type": "address"
        },
        {
          "name": "_name",
          "type": "string"
        },
        {
          "name": "_description",
          "type": "string"
        },
        {
          "name": "_unique_identifier",
          "type": "uint256"
        }
      ],
      "name": "signCertificate",
      "outputs": [],
      "payable": false,
      "stateMutability": "nonpayable",
      "type": "function"
    },
    {
      "constant": false,
      "inputs": [
        {
          "name": "unitbox_id",
          "type": "uint256"
        },
        {
          "name": "casebox_id",
          "type": "uint256"
        },
        {
          "name": "unitBoxAddr",
          "type": "address"
        },
        {
          "name": "lat",
          "type": "string"
        },
        {
          "name": "lon",
          "type": "string"
        }
      ],
      "name": "addUnitBox",
      "outputs": [],
      "payable": false,
      "stateMutability": "nonpayable",
      "type": "function"
    },
    {
      "constant": true,
      "inputs": [
        {
          "name": "_unique_identifier",
          "type": "uint256"
        }
      ],
      "name": "getCertificate",
      "outputs": [
        {
          "name": "",
          "type": "address"
        },
        {
          "name": "",
          "type": "string"
        },
        {
          "name": "",
          "type": "string"
        },
        {
          "name": "",
          "type": "address"
        },
        {
          "name": "",
          "type": "uint256"
        },
        {
          "name": "",
          "type": "address"
        },
        {
          "name": "",
          "type": "uint256"
        }
      ],
      "payable": false,
      "stateMutability": "view",
      "type": "function"
    },
    {
      "constant": true,
      "inputs": [
        {
          "name": "_unique_identifier",
          "type": "uint256"
        }
      ],
      "name": "getNumBoxes",
      "outputs": [
        {
          "name": "",
          "type": "uint256"
        }
      ],
      "payable": false,
      "stateMutability": "view",
      "type": "function"
    },
    {
      "constant": true,
      "inputs": [
        {
          "name": "_unique_identifier",
          "type": "uint256"
        },
        {
          "name": "_processIndex",
          "type": "uint256"
        }
      ],
      "name": "getProcessInfo",
      "outputs": [
        {
          "name": "",
          "type": "address"
        },
        {
          "name": "",
          "type": "string"
        },
        {
          "name": "",
          "type": "string"
        },
        {
          "name": "",
          "type": "string"
        },
        {
          "name": "",
          "type": "uint256"
        }
      ],
      "payable": false,
      "stateMutability": "view",
      "type": "function"
    },
    {
      "constant": true,
      "inputs": [
        {
          "name": "_unique_identifier",
          "type": "uint256"
        },
        {
          "name": "_boxIndex",
          "type": "uint256"
        }
      ],
      "name": "getBoxesInfo",
      "outputs": [
        {
          "name": "",
          "type": "address"
        },
        {
          "name": "",
          "type": "uint256"
        }
      ],
      "payable": false,
      "stateMutability": "view",
      "type": "function"
    },
    {
      "constant": false,
      "inputs": [
        {
          "name": "_unique_identifier",
          "type": "uint256"
        },
        {
          "name": "_information",
          "type": "string"
        },
        {
          "name": "lat",
          "type": "string"
        },
        {
          "name": "lon",
          "type": "string"
        }
      ],
      "name": "modifyCertificate",
      "outputs": [],
      "payable": false,
      "stateMutability": "nonpayable",
      "type": "function"
    },
    {
      "constant": false,
      "inputs": [
        {
          "name": "_unique_identifier",
          "type": "uint256"
        },
        {
          "name": "_newOwner",
          "type": "address"
        },
        {
          "name": "lat",
          "type": "string"
        },
        {
          "name": "lon",
          "type": "string"
        }
      ],
      "name": "modifyProcessOwner",
      "outputs": [],
      "payable": false,
      "stateMutability": "nonpayable",
      "type": "function"
    },
    {
      "constant": true,
      "inputs": [
        {
          "name": "_unique_identifier",
          "type": "uint256"
        }
      ],
      "name": "getCertificateOwner",
      "outputs": [
        {
          "name": "",
          "type": "address"
        }
      ],
      "payable": false,
      "stateMutability": "view",
      "type": "function"
    },
    {
      "constant": true,
      "inputs": [],
      "name": "getLastBlockTimestamp",
      "outputs": [
        {
          "name": "",
          "type": "uint256"
        }
      ],
      "payable": false,
      "stateMutability": "view",
      "type": "function"
    },
    {
      "constant": true,
      "inputs": [
        {
          "name": "_addr",
          "type": "address"
        }
      ],
      "name": "addressToString",
      "outputs": [
        {
          "name": "",
          "type": "string"
        }
      ],
      "payable": false,
      "stateMutability": "pure",
      "type": "function"
    }
  ],
  "bytecode": "0x608060405234801561001057600080fd5b50336000806101000a81548173ffffffffffffffffffffffffffffffffffffffff021916908373ffffffffffffffffffffffffffffffffffffffff160217905550612cd4806100606000396000f3fe608060405234801561001057600080fd5b50600436106100cf5760003560e01c806351640fee1161008c5780637282693e116100665780637282693e14610acf57806384e814ef14610aed5780639361281014610b5b578063acebf3d514610ce1576100cf565b806351640fee146106655780635e57966d1461081f578063684aca83146108dc576100cf565b806306b6088e146100d45780631847eadc146101535780631cac1dc21461019557806321fa832f146103115780632fc7dd66146104d457806341c0e1b51461065b575b600080fd5b61010a600480360360408110156100ea57600080fd5b810190808035906020019092919080359060200190929190505050610e5d565b604051808373ffffffffffffffffffffffffffffffffffffffff1673ffffffffffffffffffffffffffffffffffffffff1681526020018281526020019250505060405180910390f35b61017f6004803603602081101561016957600080fd5b8101908080359060200190929190505050610f7c565b6040518082815260200191505060405180910390f35b61030f600480360360808110156101ab57600080fd5b81019080803573ffffffffffffffffffffffffffffffffffffffff169060200190929190803590602001906401000000008111156101e857600080fd5b8201836020820111156101fa57600080fd5b8035906020019184600183028401116401000000008311171561021c57600080fd5b91908080601f016020809104026020016040519081016040528093929190818152602001838380828437600081840152601f19601f8201169050808301925050505050505091929192908035906020019064010000000081111561027f57600080fd5b82018360208201111561029157600080fd5b803590602001918460018302840111640100000000831117156102b357600080fd5b91908080601f016020809104026020016040519081016040528093929190818152602001838380828437600081840152601f19601f82011690508083019250505050505050919291929080359060200190929190505050610f9f565b005b6103476004803603604081101561032757600080fd5b81019080803590602001909291908035906020019092919050505061141b565b604051808673ffffffffffffffffffffffffffffffffffffffff1673ffffffffffffffffffffffffffffffffffffffff168152602001806020018060200180602001858152602001848103845288818151815260200191508051906020019080838360005b838110156103c75780820151818401526020810190506103ac565b50505050905090810190601f1680156103f45780820380516001836020036101000a031916815260200191505b50848103835287818151815260200191508051906020019080838360005b8381101561042d578082015181840152602081019050610412565b50505050905090810190601f16801561045a5780820380516001836020036101000a031916815260200191505b50848103825286818151815260200191508051906020019080838360005b83811015610493578082015181840152602081019050610478565b50505050905090810190601f1680156104c05780820380516001836020036101000a031916815260200191505b509850505050505050505060405180910390f35b610500600480360360208110156104ea57600080fd5b81019080803590602001909291905050506117b3565b604051808773ffffffffffffffffffffffffffffffffffffffff1673ffffffffffffffffffffffffffffffffffffffff16815260200180602001806020018681526020018573ffffffffffffffffffffffffffffffffffffffff1673ffffffffffffffffffffffffffffffffffffffff168152602001848152602001838103835288818151815260200191508051906020019080838360005b838110156105b4578082015181840152602081019050610599565b50505050905090810190601f1680156105e15780820380516001836020036101000a031916815260200191505b50838103825287818151815260200191508051906020019080838360005b8381101561061a5780820151818401526020810190506105ff565b50505050905090810190601f1680156106475780820380516001836020036101000a031916815260200191505b509850505050505050505060405180910390f35b61066361195f565b005b6106916004803603602081101561067b57600080fd5b8101908080359060200190929190505050611a5b565b604051808873ffffffffffffffffffffffffffffffffffffffff1673ffffffffffffffffffffffffffffffffffffffff16815260200180602001806020018773ffffffffffffffffffffffffffffffffffffffff1673ffffffffffffffffffffffffffffffffffffffff1681526020018681526020018573ffffffffffffffffffffffffffffffffffffffff1673ffffffffffffffffffffffffffffffffffffffff168152602001848152602001838103835289818151815260200191508051906020019080838360005b8381101561077757808201518184015260208101905061075c565b50505050905090810190601f1680156107a45780820380516001836020036101000a031916815260200191505b50838103825288818151815260200191508051906020019080838360005b838110156107dd5780820151818401526020810190506107c2565b50505050905090810190601f16801561080a5780820380516001836020036101000a031916815260200191505b50995050505050505050505060405180910390f35b6108616004803603602081101561083557600080fd5b81019080803573ffffffffffffffffffffffffffffffffffffffff169060200190929190505050611d0e565b6040518080602001828103825283818151815260200191508051906020019080838360005b838110156108a1578082015181840152602081019050610886565b50505050905090810190601f1680156108ce5780820380516001836020036101000a031916815260200191505b509250505060405180910390f35b610acd600480360360808110156108f257600080fd5b81019080803590602001909291908035906020019064010000000081111561091957600080fd5b82018360208201111561092b57600080fd5b8035906020019184600183028401116401000000008311171561094d57600080fd5b91908080601f016020809104026020016040519081016040528093929190818152602001838380828437600081840152601f19601f820116905080830192505050505050509192919290803590602001906401000000008111156109b057600080fd5b8201836020820111156109c257600080fd5b803590602001918460018302840111640100000000831117156109e457600080fd5b91908080601f016020809104026020016040519081016040528093929190818152602001838380828437600081840152601f19601f82011690508083019250505050505050919291929080359060200190640100000000811115610a4757600080fd5b820183602082011115610a5957600080fd5b80359060200191846001830284011164010000000083111715610a7b57600080fd5b91908080601f016020809104026020016040519081016040528093929190818152602001838380828437600081840152601f19601f820116905080830192505050505050509192919290505050611f8f565b005b610ad7612239565b6040518082815260200191505060405180910390f35b610b1960048036036020811015610b0357600080fd5b8101908080359060200190929190505050612241565b604051808273ffffffffffffffffffffffffffffffffffffffff1673ffffffffffffffffffffffffffffffffffffffff16815260200191505060405180910390f35b610cdf600480360360a0811015610b7157600080fd5b810190808035906020019092919080359060200190929190803573ffffffffffffffffffffffffffffffffffffffff16906020019092919080359060200190640100000000811115610bc257600080fd5b820183602082011115610bd457600080fd5b80359060200191846001830284011164010000000083111715610bf657600080fd5b91908080601f016020809104026020016040519081016040528093929190818152602001838380828437600081840152601f19601f82011690508083019250505050505050919291929080359060200190640100000000811115610c5957600080fd5b820183602082011115610c6b57600080fd5b80359060200191846001830284011164010000000083111715610c8d57600080fd5b91908080601f016020809104026020016040519081016040528093929190818152602001838380828437600081840152601f19601f820116905080830192505050505050509192919290505050612286565b005b610e5b60048036036080811015610cf757600080fd5b8101908080359060200190929190803573ffffffffffffffffffffffffffffffffffffffff16906020019092919080359060200190640100000000811115610d3e57600080fd5b820183602082011115610d5057600080fd5b80359060200191846001830284011164010000000083111715610d7257600080fd5b91908080601f016020809104026020016040519081016040528093929190818152602001838380828437600081840152601f19601f82011690508083019250505050505050919291929080359060200190640100000000811115610dd557600080fd5b820183602082011115610de757600080fd5b80359060200191846001830284011164010000000083111715610e0957600080fd5b91908080601f016020809104026020016040519081016040528093929190818152602001838380828437600081840152601f19601f8201169050808301925050505050505091929192905050506127b0565b005b60008083600160008681526020019081526020016000206005015414610eeb576040517f08c379a00000000000000000000000000000000000000000000000000000000081526004018080602001828103825260128152602001807f4572726f7220676574426f786573496e666f000000000000000000000000000081525060200191505060405180910390fd5b600160008581526020019081526020016000206004018381548110610f0c57fe5b906000526020600020906002020160000160009054906101000a900473ffffffffffffffffffffffffffffffffffffffff16600160008681526020019081526020016000206004018481548110610f5f57fe5b906000526020600020906002020160010154915091509250929050565b600060016000838152602001908152602001600020600401805490509050919050565b6000809054906101000a900473ffffffffffffffffffffffffffffffffffffffff1673ffffffffffffffffffffffffffffffffffffffff163373ffffffffffffffffffffffffffffffffffffffff1614611061576040517f08c379a00000000000000000000000000000000000000000000000000000000081526004018080602001828103825260138152602001807f4572726f722073657474696e67206f776e65720000000000000000000000000081525060200191505060405180910390fd5b836001600083815260200190815260200160002060000160006101000a81548173ffffffffffffffffffffffffffffffffffffffff021916908373ffffffffffffffffffffffffffffffffffffffff160217905550826001600083815260200190815260200160002060010190805190602001906110e0929190612b83565b508160016000838152602001908152602001600020600201908051906020019061110b929190612b83565b50600160008281526020019081526020016000206003016040518060a001604052803373ffffffffffffffffffffffffffffffffffffffff1681526020016040518060400160405280600481526020017f496e69740000000000000000000000000000000000000000000000000000000081525081526020016040518060400160405280600381526020017f302e30000000000000000000000000000000000000000000000000000000000081525081526020016040518060400160405280600381526020017f302e3000000000000000000000000000000000000000000000000000000000008152508152602001428152509080600181540180825580915050906001820390600052602060002090600502016000909192909190915060008201518160000160006101000a81548173ffffffffffffffffffffffffffffffffffffffff021916908373ffffffffffffffffffffffffffffffffffffffff160217905550602082015181600101908051906020019061128c929190612c03565b5060408201518160020190805190602001906112a9929190612c03565b5060608201518160030190805190602001906112c6929190612c03565b506080820151816004015550505080600160008381526020019081526020016000206005018190555060006001600083815260200190815260200160002060060160006101000a81548173ffffffffffffffffffffffffffffffffffffffff021916908373ffffffffffffffffffffffffffffffffffffffff160217905550600060016000838152602001908152602001600020600701819055508373ffffffffffffffffffffffffffffffffffffffff16817fbfda96928ede3cdc2d2485f7aeb4bc19717507b9666e51a9bec41a2a183a3473856040518080602001828103825283818151815260200191508051906020019080838360005b838110156113db5780820151818401526020810190506113c0565b50505050905090810190601f1680156114085780820380516001836020036101000a031916815260200191505b509250505060405180910390a350505050565b600060608060606000866001600089815260200190815260200160002060050154146114af576040517f08c379a00000000000000000000000000000000000000000000000000000000081526004018080602001828103825260188152602001807f4572726f72206765744365727469666963617465496e666f000000000000000081525060200191505060405180910390fd5b6001600088815260200190815260200160002060030186815481106114d057fe5b906000526020600020906005020160000160009054906101000a900473ffffffffffffffffffffffffffffffffffffffff1660016000898152602001908152602001600020600301878154811061152357fe5b9060005260206000209060050201600101600160008a8152602001908152602001600020600301888154811061155557fe5b9060005260206000209060050201600201600160008b8152602001908152602001600020600301898154811061158757fe5b9060005260206000209060050201600301600160008c81526020019081526020016000206003018a815481106115b957fe5b906000526020600020906005020160040154838054600181600116156101000203166002900480601f0160208091040260200160405190810160405280929190818152602001828054600181600116156101000203166002900480156116605780601f1061163557610100808354040283529160200191611660565b820191906000526020600020905b81548152906001019060200180831161164357829003601f168201915b50505050509350828054600181600116156101000203166002900480601f0160208091040260200160405190810160405280929190818152602001828054600181600116156101000203166002900480156116fc5780601f106116d1576101008083540402835291602001916116fc565b820191906000526020600020905b8154815290600101906020018083116116df57829003601f168201915b50505050509250818054600181600116156101000203166002900480601f0160208091040260200160405190810160405280929190818152602001828054600181600116156101000203166002900480156117985780601f1061176d57610100808354040283529160200191611798565b820191906000526020600020905b81548152906001019060200180831161177b57829003601f168201915b50505050509150945094509450945094509295509295909350565b60016020528060005260406000206000915090508060000160009054906101000a900473ffffffffffffffffffffffffffffffffffffffff1690806001018054600181600116156101000203166002900480601f0160208091040260200160405190810160405280929190818152602001828054600181600116156101000203166002900480156118855780601f1061185a57610100808354040283529160200191611885565b820191906000526020600020905b81548152906001019060200180831161186857829003601f168201915b505050505090806002018054600181600116156101000203166002900480601f0160208091040260200160405190810160405280929190818152602001828054600181600116156101000203166002900480156119235780601f106118f857610100808354040283529160200191611923565b820191906000526020600020905b81548152906001019060200180831161190657829003601f168201915b5050505050908060050154908060060160009054906101000a900473ffffffffffffffffffffffffffffffffffffffff16908060070154905086565b6000809054906101000a900473ffffffffffffffffffffffffffffffffffffffff1673ffffffffffffffffffffffffffffffffffffffff163373ffffffffffffffffffffffffffffffffffffffff1614611a21576040517f08c379a00000000000000000000000000000000000000000000000000000000081526004018080602001828103825260138152602001807f4572726f722073657474696e67206f776e65720000000000000000000000000081525060200191505060405180910390fd5b6000809054906101000a900473ffffffffffffffffffffffffffffffffffffffff1673ffffffffffffffffffffffffffffffffffffffff16ff5b600060608060008060008087600160008a81526020019081526020016000206005015414611af1576040517f08c379a00000000000000000000000000000000000000000000000000000000081526004018080602001828103825260148152602001807f4572726f7220676574436572746966696361746500000000000000000000000081525060200191505060405180910390fd5b6001600089815260200190815260200160002060000160009054906101000a900473ffffffffffffffffffffffffffffffffffffffff16600160008a8152602001908152602001600020600101600160008b815260200190815260200160002060020130600160008d815260200190815260200160002060030180549050600160008e815260200190815260200160002060060160009054906101000a900473ffffffffffffffffffffffffffffffffffffffff16600160008f815260200190815260200160002060070154858054600181600116156101000203166002900480601f016020809104026020016040519081016040528092919081815260200182805460018160011615610100020316600290048015611c525780601f10611c2757610100808354040283529160200191611c52565b820191906000526020600020905b815481529060010190602001808311611c3557829003601f168201915b50505050509550848054600181600116156101000203166002900480601f016020809104026020016040519081016040528092919081815260200182805460018160011615610100020316600290048015611cee5780601f10611cc357610100808354040283529160200191611cee565b820191906000526020600020905b815481529060010190602001808311611cd157829003601f168201915b505050505094509650965096509650965096509650919395979092949650565b606060008273ffffffffffffffffffffffffffffffffffffffff1660001b905060606040518060400160405280601081526020017f30313233343536373839616263646566000000000000000000000000000000008152509050606060336040519080825280601f01601f191660200182016040528015611d9e5781602001600182028038833980820191505090505b5090507f300000000000000000000000000000000000000000000000000000000000000081600081518110611dcf57fe5b60200101907effffffffffffffffffffffffffffffffffffffffffffffffffffffffffffff1916908160001a9053507f780000000000000000000000000000000000000000000000000000000000000081600181518110611e2c57fe5b60200101907effffffffffffffffffffffffffffffffffffffffffffffffffffffffffffff1916908160001a90535060008090505b6014811015611f835782600485600c840160208110611e7c57fe5b1a60f81b7effffffffffffffffffffffffffffffffffffffffffffffffffffffffffffff1916901c60f81c60ff1681518110611eb457fe5b602001015160f81c60f81b826002830260020181518110611ed157fe5b60200101907effffffffffffffffffffffffffffffffffffffffffffffffffffffffffffff1916908160001a90535082600f60f81b85600c840160208110611f1557fe5b1a60f81b1660f81c60ff1681518110611f2a57fe5b602001015160f81c60f81b826002830260030181518110611f4757fe5b60200101907effffffffffffffffffffffffffffffffffffffffffffffffffffffffffffff1916908160001a9053508080600101915050611e61565b50809350505050919050565b6001600085815260200190815260200160002060000160009054906101000a900473ffffffffffffffffffffffffffffffffffffffff1673ffffffffffffffffffffffffffffffffffffffff163373ffffffffffffffffffffffffffffffffffffffff1614612066576040517f08c379a00000000000000000000000000000000000000000000000000000000081526004018080602001828103825260178152602001807f4572726f72206d6f64696679436572746966696361746500000000000000000081525060200191505060405180910390fd5b600160008581526020019081526020016000206003016040518060a001604052803373ffffffffffffffffffffffffffffffffffffffff168152602001858152602001848152602001838152602001428152509080600181540180825580915050906001820390600052602060002090600502016000909192909190915060008201518160000160006101000a81548173ffffffffffffffffffffffffffffffffffffffff021916908373ffffffffffffffffffffffffffffffffffffffff1602179055506020820151816001019080519060200190612147929190612c03565b506040820151816002019080519060200190612164929190612c03565b506060820151816003019080519060200190612181929190612c03565b50608082015181600401555050507f4ed9d3149e3f4a2245abc07e1429b94876f87d613362f125b8e9128ca7443f5884846040518083815260200180602001828103825283818151815260200191508051906020019080838360005b838110156121f85780820151818401526020810190506121dd565b50505050905090810190601f1680156122255780820380516001836020036101000a031916815260200191505b50935050505060405180910390a150505050565b600042905090565b6000806001600084815260200190815260200160002090508060000160009054906101000a900473ffffffffffffffffffffffffffffffffffffffff16915050919050565b6001600085815260200190815260200160002060000160009054906101000a900473ffffffffffffffffffffffffffffffffffffffff1673ffffffffffffffffffffffffffffffffffffffff163373ffffffffffffffffffffffffffffffffffffffff161461235d576040517f08c379a00000000000000000000000000000000000000000000000000000000081526004018080602001828103825260128152602001807f4572726f722061646420756e697420626f78000000000000000000000000000081525060200191505060405180910390fd5b6001600085815260200190815260200160002060040160405180604001604052808573ffffffffffffffffffffffffffffffffffffffff168152602001878152509080600181540180825580915050906001820390600052602060002090600202016000909192909190915060008201518160000160006101000a81548173ffffffffffffffffffffffffffffffffffffffff021916908373ffffffffffffffffffffffffffffffffffffffff16021790555060208201518160010155505050600160008581526020019081526020016000206003016040518060a001604052803373ffffffffffffffffffffffffffffffffffffffff1681526020016040518060400160405280601481526020017f41646465642061206e657720556e697420426f780000000000000000000000008152508152602001848152602001838152602001428152509080600181540180825580915050906001820390600052602060002090600502016000909192909190915060008201518160000160006101000a81548173ffffffffffffffffffffffffffffffffffffffff021916908373ffffffffffffffffffffffffffffffffffffffff1602179055506020820151816001019080519060200190612533929190612c03565b506040820151816002019080519060200190612550929190612c03565b50606082015181600301908051906020019061256d929190612c03565b506080820151816004015550505060008390508073ffffffffffffffffffffffffffffffffffffffff1663f7d1e3783087893388886040518763ffffffff1660e01b8152600401808773ffffffffffffffffffffffffffffffffffffffff1673ffffffffffffffffffffffffffffffffffffffff1681526020018681526020018581526020018473ffffffffffffffffffffffffffffffffffffffff1673ffffffffffffffffffffffffffffffffffffffff1681526020018060200180602001838103835285818151815260200191508051906020019080838360005b8381101561266557808201518184015260208101905061264a565b50505050905090810190601f1680156126925780820380516001836020036101000a031916815260200191505b50838103825284818151815260200191508051906020019080838360005b838110156126cb5780820151818401526020810190506126b0565b50505050905090810190601f1680156126f85780820380516001836020036101000a031916815260200191505b5098505050505050505050600060405180830381600087803b15801561271d57600080fd5b505af1158015612731573d6000803e3d6000fd5b505050507f241197e98cf5a15709e5288bf33cb1e97cc3aad55a7a2356883039440d27d66d868686604051808481526020018381526020018273ffffffffffffffffffffffffffffffffffffffff1673ffffffffffffffffffffffffffffffffffffffff168152602001935050505060405180910390a1505050505050565b6001600085815260200190815260200160002060000160009054906101000a900473ffffffffffffffffffffffffffffffffffffffff1673ffffffffffffffffffffffffffffffffffffffff163373ffffffffffffffffffffffffffffffffffffffff1614612887576040517f08c379a00000000000000000000000000000000000000000000000000000000081526004018080602001828103825260188152602001807f4572726f72206d6f6469667950726f636573734f776e6572000000000000000081525060200191505060405180910390fd5b826001600086815260200190815260200160002060000160006101000a81548173ffffffffffffffffffffffffffffffffffffffff021916908373ffffffffffffffffffffffffffffffffffffffff160217905550606060405160200180807f5472616e73666572206f66206f776e65727368697020746f2000000000000000815250601901905060405160208183030381529060405290508061292a85611d0e565b6040516020018083805190602001908083835b60208310612960578051825260208201915060208101905060208303925061293d565b6001836020036101000a03801982511681845116808217855250505050505090500182805190602001908083835b602083106129b1578051825260208201915060208101905060208303925061298e565b6001836020036101000a038019825116818451168082178552505050505050905001925050506040516020818303038152906040529050600160008681526020019081526020016000206003016040518060a001604052803373ffffffffffffffffffffffffffffffffffffffff168152602001838152602001858152602001848152602001428152509080600181540180825580915050906001820390600052602060002090600502016000909192909190915060008201518160000160006101000a81548173ffffffffffffffffffffffffffffffffffffffff021916908373ffffffffffffffffffffffffffffffffffffffff1602179055506020820151816001019080519060200190612ac9929190612c03565b506040820151816002019080519060200190612ae6929190612c03565b506060820151816003019080519060200190612b03929190612c03565b50608082015181600401555050507f8fb219ab319a1143dc3434037c1394359aa4c17fdd84e8d41563db11d41ef1788486604051808373ffffffffffffffffffffffffffffffffffffffff1673ffffffffffffffffffffffffffffffffffffffff1681526020018281526020019250505060405180910390a15050505050565b828054600181600116156101000203166002900490600052602060002090601f016020900481019282601f10612bc457805160ff1916838001178555612bf2565b82800160010185558215612bf2579182015b82811115612bf1578251825591602001919060010190612bd6565b5b509050612bff9190612c83565b5090565b828054600181600116156101000203166002900490600052602060002090601f016020900481019282601f10612c4457805160ff1916838001178555612c72565b82800160010185558215612c72579182015b82811115612c71578251825591602001919060010190612c56565b5b509050612c7f9190612c83565b5090565b612ca591905b80821115612ca1576000816000905550600101612c89565b5090565b9056fea165627a7a7230582069bc6192c0ae053fba5890dbfc054e9fb6d03d0c5616a52f58ad099f2e16b45b0029",
  "source": "pragma solidity ^0.5.7;\n\ncontract archiveCertification{\n  function setCaseBox(address _caseBox_addr,\n  uint256 _caseBox_uid, uint256 unit_box_uid,\n    address sender, string memory lat,\n    string memory lon) public;\n}\n\ncontract caseboxCertification{\n\n  struct processAction{\n    address from;\n    string action;\n    string latitude;\n    string longitude;\n    uint256 timestamp;\n  }\n\n  struct Certificate{\n    address box_owner;\n    string name;\n    string description;\n    processAction[] process_data;\n    unitBox[] unit_boxes;\n    uint256 unique_identifier;\n    address unitLoadAddr;\n    uint256 unitLoad_UId;\n  }\n\n  struct unitBox{\n    address unitBox_addr;\n    uint256 unitBox_UId;\n  }\n\n\n  address payable contract_owner;\n  //map of box_certifications\n  mapping (uint256 => Certificate) public box_certificates;\n\n\n  // modifiers\n  modifier contractOwner() {\n    require(msg.sender == contract_owner, \"Error setting owner\");\n    _;\n  }\n\n  // constructor\n  constructor () public {\n    contract_owner = msg.sender;\n  }\n\n  // deactivate the contract\n  function kill() public contractOwner {\n    selfdestruct(contract_owner);\n  }\n\n  // events\n  event LogSignCertificate(\n    uint indexed _unique_identifier,\n    address indexed _process_owner,\n    string _name\n  );\n\n  // events\n  event LogModifyCertificate(\n    uint _unique_identifier,\n    string _information\n  );\n\n  // events\n  event LogModifyProcessOwner(\n    address _newOwner,\n    uint _unique_identifier\n  );\n\n  event LogAddUnitBox(\n    uint256 _unique_identifier,\n    uint256 casebox_id,\n    address unitBoxAddr\n  );\n\n\n  function signCertificate(address _process_owner, string memory _name,\n  string memory _description, uint256 _unique_identifier) public contractOwner{\n\n    box_certificates[_unique_identifier].box_owner = _process_owner;\n    box_certificates[_unique_identifier].name = _name;\n    box_certificates[_unique_identifier].description = _description;\n    box_certificates[_unique_identifier].process_data.push (processAction(msg.sender,\"Init\", \"0.0\", \"0.0\", block.timestamp ));\n    box_certificates[_unique_identifier].unique_identifier = _unique_identifier;\n    box_certificates[_unique_identifier].unitLoadAddr = address(0);\n    box_certificates[_unique_identifier].unitLoad_UId = 0;\n\n\n    emit LogSignCertificate(_unique_identifier, _process_owner, _name);\n  }\n\n  function addUnitBox(uint256 unitbox_id, uint256 casebox_id, address unitBoxAddr, string memory lat, string memory lon) public {\n    require(msg.sender == box_certificates[casebox_id].box_owner,\"Error add unit box\");\n    box_certificates[casebox_id].unit_boxes.push(unitBox(unitBoxAddr,unitbox_id));\n    box_certificates[casebox_id].process_data.push (processAction(msg.sender,\"Added a new Unit Box\", lat, lon, block.timestamp ));\n\n    archiveCertification unitBox_certificate = archiveCertification(unitBoxAddr);\n    unitBox_certificate.setCaseBox(address(this), casebox_id, unitbox_id, msg.sender, lat, lon);\n\n    emit LogAddUnitBox(unitbox_id, casebox_id, unitBoxAddr);\n  }\n\n  function getCertificate(uint _unique_identifier) public view returns (\n    address, string memory, string memory, address, uint, address, uint256){\n\n    require(box_certificates[_unique_identifier].unique_identifier == _unique_identifier, \"Error getCertificate\");\n\n\n    return (box_certificates[_unique_identifier].box_owner,\n    box_certificates[_unique_identifier].name,\n    box_certificates[_unique_identifier].description,\n    address(this),\n    box_certificates[_unique_identifier].process_data.length,\n    box_certificates[_unique_identifier].unitLoadAddr,\n    box_certificates[_unique_identifier].unitLoad_UId);\n  }\n\n  function getNumBoxes (uint _unique_identifier) public view returns (uint){\n    return box_certificates[_unique_identifier].unit_boxes.length;\n  }\n\n  function getProcessInfo(uint256 _unique_identifier, uint _processIndex)\n  public view returns (address, string memory, string memory, string memory, uint256){\n    require(box_certificates[_unique_identifier].unique_identifier == _unique_identifier, \"Error getCertificateInfo\");\n\n    return (box_certificates[_unique_identifier].process_data[_processIndex].from,\n    box_certificates[_unique_identifier].process_data[_processIndex].action,\n    box_certificates[_unique_identifier].process_data[_processIndex].latitude,\n    box_certificates[_unique_identifier].process_data[_processIndex].longitude,\n    box_certificates[_unique_identifier].process_data[_processIndex].timestamp);\n  }\n  function getBoxesInfo(uint256 _unique_identifier, uint _boxIndex)\n  public view returns (address, uint256){\n    require(box_certificates[_unique_identifier].unique_identifier == _unique_identifier, \"Error getBoxesInfo\");\n\n    return (box_certificates[_unique_identifier].unit_boxes[_boxIndex].unitBox_addr,\n      box_certificates[_unique_identifier].unit_boxes[_boxIndex].unitBox_UId\n    );\n  }\n  function modifyCertificate(uint256 _unique_identifier, string memory _information, string memory lat, string memory lon) public {\n    require(msg.sender == box_certificates[_unique_identifier].box_owner,\"Error modifyCertificate\");\n\n    box_certificates[_unique_identifier].process_data.push (processAction(msg.sender,_information, lat, lon, block.timestamp ));\n    emit LogModifyCertificate(_unique_identifier, _information);\n  }\n\n  function modifyProcessOwner(uint256 _unique_identifier, address _newOwner, string memory lat, string memory lon) public {\n    require(msg.sender == box_certificates[_unique_identifier].box_owner,\"Error modifyProcessOwner\");\n\n    box_certificates[_unique_identifier].box_owner = _newOwner;\n    bytes memory ownerAction = abi.encodePacked(\"Transfer of ownership to \");\n    ownerAction = abi.encodePacked(ownerAction,addressToString(_newOwner));\n    box_certificates[_unique_identifier].process_data.push (processAction(msg.sender,string(ownerAction), lat, lon, block.timestamp ));\n    emit LogModifyProcessOwner(_newOwner, _unique_identifier);\n  }\n\n  function getCertificateOwner(uint256 _unique_identifier) public view returns (address){\n    Certificate storage certificate = box_certificates[_unique_identifier];\n    return certificate.box_owner;\n  }\n\n  function getLastBlockTimestamp() public view returns (uint) {\n    return  block.timestamp;\n  }\n\n  function addressToString(address _addr) public pure returns(string memory)\n  {\n    bytes32 value = bytes32(uint256(_addr));\n    bytes memory alphabet = \"0123456789abcdef\";\n\n    bytes memory str = new bytes(51);\n    str[0] = '0';\n    str[1] = 'x';\n    for (uint256 i = 0; i < 20; i++) {\n        str[2+i*2] = alphabet[uint8(value[i + 12] >> 4)];\n        str[3+i*2] = alphabet[uint8(value[i + 12] & 0x0f)];\n    }\n    return string(str);\n  }\n\n\n}\n",
  "sourcePath": "/home/ferdi/bcsifi_serial/BCSifiSC_caseboxCertificate/contracts/caseboxCertification.sol",
  "compiler": {
    "name": "solc",
    "version": "0.5.8+commit.23d335f2.Emscripten.clang"
  },
  "schemaVersion": "3.0.11",
  "updatedAt": "2020-01-13T11:19:19.589Z",
  "devdoc": {
    "methods": {}
  },
  "userdoc": {
    "methods": {}
  }
}